{
    "_format": "hh-sol-artifact-1",
    "contractName": "SupportToken",
    "sourceName": "contracts/SupportToken.sol",
    "abi": [
        {
            "inputs": [],
            "stateMutability": "nonpayable",
            "type": "constructor"
        },
        {
            "anonymous": false,
            "inputs": [
                {
                    "indexed": true,
                    "internalType": "address",
                    "name": "owner",
                    "type": "address"
                },
                {
                    "indexed": true,
                    "internalType": "address",
                    "name": "spender",
                    "type": "address"
                },
                {
                    "indexed": false,
                    "internalType": "uint256",
                    "name": "value",
                    "type": "uint256"
                }
            ],
            "name": "Approval",
            "type": "event"
        },
        {
            "anonymous": false,
            "inputs": [
                {
                    "indexed": true,
                    "internalType": "address",
                    "name": "from",
                    "type": "address"
                },
                {
                    "indexed": true,
                    "internalType": "address",
                    "name": "to",
                    "type": "address"
                },
                {
                    "indexed": false,
                    "internalType": "uint256",
                    "name": "value",
                    "type": "uint256"
                }
            ],
            "name": "Transfer",
            "type": "event"
        },
        {
            "inputs": [
                {
                    "internalType": "uint256",
                    "name": "amount",
                    "type": "uint256"
                }
            ],
            "name": "acceptDonation",
            "outputs": [
                {
                    "internalType": "bool",
                    "name": "accepted",
                    "type": "bool"
                }
            ],
            "stateMutability": "payable",
            "type": "function"
        },
        {
            "inputs": [
                {
                    "internalType": "address",
                    "name": "owner",
                    "type": "address"
                },
                {
                    "internalType": "address",
                    "name": "spender",
                    "type": "address"
                }
            ],
            "name": "allowance",
            "outputs": [
                {
                    "internalType": "uint256",
                    "name": "",
                    "type": "uint256"
                }
            ],
            "stateMutability": "view",
            "type": "function"
        },
        {
            "inputs": [
                {
                    "internalType": "address",
                    "name": "spender",
                    "type": "address"
                },
                {
                    "internalType": "uint256",
                    "name": "amount",
                    "type": "uint256"
                }
            ],
            "name": "approve",
            "outputs": [
                {
                    "internalType": "bool",
                    "name": "",
                    "type": "bool"
                }
            ],
            "stateMutability": "nonpayable",
            "type": "function"
        },
        {
            "inputs": [
                {
                    "internalType": "address",
                    "name": "account",
                    "type": "address"
                }
            ],
            "name": "balanceOf",
            "outputs": [
                {
                    "internalType": "uint256",
                    "name": "",
                    "type": "uint256"
                }
            ],
            "stateMutability": "view",
            "type": "function"
        },
        {
            "inputs": [],
            "name": "decimals",
            "outputs": [
                {
                    "internalType": "uint8",
                    "name": "",
                    "type": "uint8"
                }
            ],
            "stateMutability": "view",
            "type": "function"
        },
        {
            "inputs": [
                {
                    "internalType": "address",
                    "name": "spender",
                    "type": "address"
                },
                {
                    "internalType": "uint256",
                    "name": "subtractedValue",
                    "type": "uint256"
                }
            ],
            "name": "decreaseAllowance",
            "outputs": [
                {
                    "internalType": "bool",
                    "name": "",
                    "type": "bool"
                }
            ],
            "stateMutability": "nonpayable",
            "type": "function"
        },
        {
            "inputs": [
                {
                    "internalType": "address",
                    "name": "spender",
                    "type": "address"
                },
                {
                    "internalType": "uint256",
                    "name": "addedValue",
                    "type": "uint256"
                }
            ],
            "name": "increaseAllowance",
            "outputs": [
                {
                    "internalType": "bool",
                    "name": "",
                    "type": "bool"
                }
            ],
            "stateMutability": "nonpayable",
            "type": "function"
        },
        {
            "inputs": [],
            "name": "name",
            "outputs": [
                {
                    "internalType": "string",
                    "name": "",
                    "type": "string"
                }
            ],
            "stateMutability": "view",
            "type": "function"
        },
        {
            "inputs": [],
            "name": "symbol",
            "outputs": [
                {
                    "internalType": "string",
                    "name": "",
                    "type": "string"
                }
            ],
            "stateMutability": "view",
            "type": "function"
        },
        {
            "inputs": [],
            "name": "totalSupply",
            "outputs": [
                {
                    "internalType": "uint256",
                    "name": "",
                    "type": "uint256"
                }
            ],
            "stateMutability": "view",
            "type": "function"
        },
        {
            "inputs": [
                {
                    "internalType": "address",
                    "name": "to",
                    "type": "address"
                },
                {
                    "internalType": "uint256",
                    "name": "amount",
                    "type": "uint256"
                }
            ],
            "name": "transfer",
            "outputs": [
                {
                    "internalType": "bool",
                    "name": "",
                    "type": "bool"
                }
            ],
            "stateMutability": "nonpayable",
            "type": "function"
        },
        {
            "inputs": [
                {
                    "internalType": "address",
                    "name": "from",
                    "type": "address"
                },
                {
                    "internalType": "address",
                    "name": "to",
                    "type": "address"
                },
                {
                    "internalType": "uint256",
                    "name": "amount",
                    "type": "uint256"
                }
            ],
            "name": "transferFrom",
            "outputs": [
                {
                    "internalType": "bool",
                    "name": "",
                    "type": "bool"
                }
            ],
            "stateMutability": "nonpayable",
            "type": "function"
        },
        {
            "inputs": [],
            "name": "withdrawChest",
            "outputs": [
                {
                    "internalType": "bool",
                    "name": "",
                    "type": "bool"
                }
            ],
            "stateMutability": "nonpayable",
            "type": "function"
        }
    ],
    "bytecode": "0x60806040523480156200001157600080fd5b506040518060400160405280600d81526020017f537570706f727420546f6b656e000000000000000000000000000000000000008152506040518060400160405280600381526020017f535454000000000000000000000000000000000000000000000000000000000081525081600390816200008f919062000500565b508060049081620000a1919062000500565b505050620000c03369021e19e0c9bab24000006200010f60201b60201c565b33600660006101000a81548173ffffffffffffffffffffffffffffffffffffffff021916908373ffffffffffffffffffffffffffffffffffffffff160217905550600060058190555062000702565b600073ffffffffffffffffffffffffffffffffffffffff168273ffffffffffffffffffffffffffffffffffffffff160362000181576040517f08c379a0000000000000000000000000000000000000000000000000000000008152600401620001789062000648565b60405180910390fd5b62000195600083836200027c60201b60201c565b8060026000828254620001a9919062000699565b92505081905550806000808473ffffffffffffffffffffffffffffffffffffffff1673ffffffffffffffffffffffffffffffffffffffff168152602001908152602001600020600082825401925050819055508173ffffffffffffffffffffffffffffffffffffffff16600073ffffffffffffffffffffffffffffffffffffffff167fddf252ad1be2c89b69c2b068fc378daa952ba7f163c4a11628f55a4df523b3ef836040516200025c9190620006e5565b60405180910390a362000278600083836200028160201b60201c565b5050565b505050565b505050565b600081519050919050565b7f4e487b7100000000000000000000000000000000000000000000000000000000600052604160045260246000fd5b7f4e487b7100000000000000000000000000000000000000000000000000000000600052602260045260246000fd5b600060028204905060018216806200030857607f821691505b6020821081036200031e576200031d620002c0565b5b50919050565b60008190508160005260206000209050919050565b60006020601f8301049050919050565b600082821b905092915050565b600060088302620003887fffffffffffffffffffffffffffffffffffffffffffffffffffffffffffffffff8262000349565b62000394868362000349565b95508019841693508086168417925050509392505050565b6000819050919050565b6000819050919050565b6000620003e1620003db620003d584620003ac565b620003b6565b620003ac565b9050919050565b6000819050919050565b620003fd83620003c0565b620004156200040c82620003e8565b84845462000356565b825550505050565b600090565b6200042c6200041d565b62000439818484620003f2565b505050565b5b8181101562000461576200045560008262000422565b6001810190506200043f565b5050565b601f821115620004b0576200047a8162000324565b620004858462000339565b8101602085101562000495578190505b620004ad620004a48562000339565b8301826200043e565b50505b505050565b600082821c905092915050565b6000620004d560001984600802620004b5565b1980831691505092915050565b6000620004f08383620004c2565b9150826002028217905092915050565b6200050b8262000286565b67ffffffffffffffff81111562000527576200052662000291565b5b620005338254620002ef565b6200054082828562000465565b600060209050601f83116001811462000578576000841562000563578287015190505b6200056f8582620004e2565b865550620005df565b601f198416620005888662000324565b60005b82811015620005b2578489015182556001820191506020850194506020810190506200058b565b86831015620005d25784890151620005ce601f891682620004c2565b8355505b6001600288020188555050505b505050505050565b600082825260208201905092915050565b7f45524332303a206d696e7420746f20746865207a65726f206164647265737300600082015250565b600062000630601f83620005e7565b91506200063d82620005f8565b602082019050919050565b60006020820190508181036000830152620006638162000621565b9050919050565b7f4e487b7100000000000000000000000000000000000000000000000000000000600052601160045260246000fd5b6000620006a682620003ac565b9150620006b383620003ac565b9250828201905080821115620006ce57620006cd6200066a565b5b92915050565b620006df81620003ac565b82525050565b6000602082019050620006fc6000830184620006d4565b92915050565b61150180620007126000396000f3fe6080604052600436106100c25760003560e01c8063395093511161007f57806395d89b411161005957806395d89b4114610297578063a457c2d7146102c2578063a9059cbb146102ff578063dd62ed3e1461033c576100c2565b806339509351146101f25780636f6a2af91461022f57806370a082311461025a576100c2565b806306fdde03146100c7578063095ea7b3146100f25780630b9d847e1461012f57806318160ddd1461015f57806323b872dd1461018a578063313ce567146101c7575b600080fd5b3480156100d357600080fd5b506100dc610379565b6040516100e99190610d45565b60405180910390f35b3480156100fe57600080fd5b5061011960048036038101906101149190610e00565b61040b565b6040516101269190610e5b565b60405180910390f35b61014960048036038101906101449190610e76565b61042e565b6040516101569190610e5b565b60405180910390f35b34801561016b57600080fd5b50610174610494565b6040516101819190610eb2565b60405180910390f35b34801561019657600080fd5b506101b160048036038101906101ac9190610ecd565b61049e565b6040516101be9190610e5b565b60405180910390f35b3480156101d357600080fd5b506101dc6104cd565b6040516101e99190610f3c565b60405180910390f35b3480156101fe57600080fd5b5061021960048036038101906102149190610e00565b6104d6565b6040516102269190610e5b565b60405180910390f35b34801561023b57600080fd5b5061024461050d565b6040516102519190610e5b565b60405180910390f35b34801561026657600080fd5b50610281600480360381019061027c9190610f57565b6105dd565b60405161028e9190610eb2565b60405180910390f35b3480156102a357600080fd5b506102ac610625565b6040516102b99190610d45565b60405180910390f35b3480156102ce57600080fd5b506102e960048036038101906102e49190610e00565b6106b7565b6040516102f69190610e5b565b60405180910390f35b34801561030b57600080fd5b5061032660048036038101906103219190610e00565b61072e565b6040516103339190610e5b565b60405180910390f35b34801561034857600080fd5b50610363600480360381019061035e9190610f84565b610751565b6040516103709190610eb2565b60405180910390f35b60606003805461038890610ff3565b80601f01602080910402602001604051908101604052809291908181526020018280546103b490610ff3565b80156104015780601f106103d657610100808354040283529160200191610401565b820191906000526020600020905b8154815290600101906020018083116103e457829003601f168201915b5050505050905090565b6000806104166107d8565b90506104238185856107e0565b600191505092915050565b6000348214610472576040517f08c379a000000000000000000000000000000000000000000000000000000000815260040161046990611070565b60405180910390fd5b346005600082825461048491906110bf565b9250508190555060019050919050565b6000600254905090565b6000806104a96107d8565b90506104b68582856109a9565b6104c1858585610a35565b60019150509392505050565b60006012905090565b6000806104e16107d8565b90506105028185856104f38589610751565b6104fd91906110bf565b6107e0565b600191505092915050565b6000600660009054906101000a900473ffffffffffffffffffffffffffffffffffffffff1673ffffffffffffffffffffffffffffffffffffffff163373ffffffffffffffffffffffffffffffffffffffff161461056957600080fd5b6000600660009054906101000a900473ffffffffffffffffffffffffffffffffffffffff1673ffffffffffffffffffffffffffffffffffffffff166108fc479081150290604051600060405180830381858888f19350505050905080156105d45760019150506105da565b60009150505b90565b60008060008373ffffffffffffffffffffffffffffffffffffffff1673ffffffffffffffffffffffffffffffffffffffff168152602001908152602001600020549050919050565b60606004805461063490610ff3565b80601f016020809104026020016040519081016040528092919081815260200182805461066090610ff3565b80156106ad5780601f10610682576101008083540402835291602001916106ad565b820191906000526020600020905b81548152906001019060200180831161069057829003601f168201915b5050505050905090565b6000806106c26107d8565b905060006106d08286610751565b905083811015610715576040517f08c379a000000000000000000000000000000000000000000000000000000000815260040161070c90611165565b60405180910390fd5b61072282868684036107e0565b60019250505092915050565b6000806107396107d8565b9050610746818585610a35565b600191505092915050565b6000600160008473ffffffffffffffffffffffffffffffffffffffff1673ffffffffffffffffffffffffffffffffffffffff16815260200190815260200160002060008373ffffffffffffffffffffffffffffffffffffffff1673ffffffffffffffffffffffffffffffffffffffff16815260200190815260200160002054905092915050565b600033905090565b600073ffffffffffffffffffffffffffffffffffffffff168373ffffffffffffffffffffffffffffffffffffffff160361084f576040517f08c379a0000000000000000000000000000000000000000000000000000000008152600401610846906111f7565b60405180910390fd5b600073ffffffffffffffffffffffffffffffffffffffff168273ffffffffffffffffffffffffffffffffffffffff16036108be576040517f08c379a00000000000000000000000000000000000000000000000000000000081526004016108b590611289565b60405180910390fd5b80600160008573ffffffffffffffffffffffffffffffffffffffff1673ffffffffffffffffffffffffffffffffffffffff16815260200190815260200160002060008473ffffffffffffffffffffffffffffffffffffffff1673ffffffffffffffffffffffffffffffffffffffff168152602001908152602001600020819055508173ffffffffffffffffffffffffffffffffffffffff168373ffffffffffffffffffffffffffffffffffffffff167f8c5be1e5ebec7d5bd14f71427d1e84f3dd0314c0f7b2291e5b200ac8c7c3b9258360405161099c9190610eb2565b60405180910390a3505050565b60006109b58484610751565b90507fffffffffffffffffffffffffffffffffffffffffffffffffffffffffffffffff8114610a2f5781811015610a21576040517f08c379a0000000000000000000000000000000000000000000000000000000008152600401610a18906112f5565b60405180910390fd5b610a2e84848484036107e0565b5b50505050565b600073ffffffffffffffffffffffffffffffffffffffff168373ffffffffffffffffffffffffffffffffffffffff1603610aa4576040517f08c379a0000000000000000000000000000000000000000000000000000000008152600401610a9b90611387565b60405180910390fd5b600073ffffffffffffffffffffffffffffffffffffffff168273ffffffffffffffffffffffffffffffffffffffff1603610b13576040517f08c379a0000000000000000000000000000000000000000000000000000000008152600401610b0a90611419565b60405180910390fd5b610b1e838383610cab565b60008060008573ffffffffffffffffffffffffffffffffffffffff1673ffffffffffffffffffffffffffffffffffffffff16815260200190815260200160002054905081811015610ba4576040517f08c379a0000000000000000000000000000000000000000000000000000000008152600401610b9b906114ab565b60405180910390fd5b8181036000808673ffffffffffffffffffffffffffffffffffffffff1673ffffffffffffffffffffffffffffffffffffffff16815260200190815260200160002081905550816000808573ffffffffffffffffffffffffffffffffffffffff1673ffffffffffffffffffffffffffffffffffffffff168152602001908152602001600020600082825401925050819055508273ffffffffffffffffffffffffffffffffffffffff168473ffffffffffffffffffffffffffffffffffffffff167fddf252ad1be2c89b69c2b068fc378daa952ba7f163c4a11628f55a4df523b3ef84604051610c929190610eb2565b60405180910390a3610ca5848484610cb0565b50505050565b505050565b505050565b600081519050919050565b600082825260208201905092915050565b60005b83811015610cef578082015181840152602081019050610cd4565b60008484015250505050565b6000601f19601f8301169050919050565b6000610d1782610cb5565b610d218185610cc0565b9350610d31818560208601610cd1565b610d3a81610cfb565b840191505092915050565b60006020820190508181036000830152610d5f8184610d0c565b905092915050565b600080fd5b600073ffffffffffffffffffffffffffffffffffffffff82169050919050565b6000610d9782610d6c565b9050919050565b610da781610d8c565b8114610db257600080fd5b50565b600081359050610dc481610d9e565b92915050565b6000819050919050565b610ddd81610dca565b8114610de857600080fd5b50565b600081359050610dfa81610dd4565b92915050565b60008060408385031215610e1757610e16610d67565b5b6000610e2585828601610db5565b9250506020610e3685828601610deb565b9150509250929050565b60008115159050919050565b610e5581610e40565b82525050565b6000602082019050610e706000830184610e4c565b92915050565b600060208284031215610e8c57610e8b610d67565b5b6000610e9a84828501610deb565b91505092915050565b610eac81610dca565b82525050565b6000602082019050610ec76000830184610ea3565b92915050565b600080600060608486031215610ee657610ee5610d67565b5b6000610ef486828701610db5565b9350506020610f0586828701610db5565b9250506040610f1686828701610deb565b9150509250925092565b600060ff82169050919050565b610f3681610f20565b82525050565b6000602082019050610f516000830184610f2d565b92915050565b600060208284031215610f6d57610f6c610d67565b5b6000610f7b84828501610db5565b91505092915050565b60008060408385031215610f9b57610f9a610d67565b5b6000610fa985828601610db5565b9250506020610fba85828601610db5565b9150509250929050565b7f4e487b7100000000000000000000000000000000000000000000000000000000600052602260045260246000fd5b6000600282049050600182168061100b57607f821691505b60208210810361101e5761101d610fc4565b5b50919050565b7f496e76616c696420616d6f756e74210000000000000000000000000000000000600082015250565b600061105a600f83610cc0565b915061106582611024565b602082019050919050565b600060208201905081810360008301526110898161104d565b9050919050565b7f4e487b7100000000000000000000000000000000000000000000000000000000600052601160045260246000fd5b60006110ca82610dca565b91506110d583610dca565b92508282019050808211156110ed576110ec611090565b5b92915050565b7f45524332303a2064656372656173656420616c6c6f77616e63652062656c6f7760008201527f207a65726f000000000000000000000000000000000000000000000000000000602082015250565b600061114f602583610cc0565b915061115a826110f3565b604082019050919050565b6000602082019050818103600083015261117e81611142565b9050919050565b7f45524332303a20617070726f76652066726f6d20746865207a65726f2061646460008201527f7265737300000000000000000000000000000000000000000000000000000000602082015250565b60006111e1602483610cc0565b91506111ec82611185565b604082019050919050565b60006020820190508181036000830152611210816111d4565b9050919050565b7f45524332303a20617070726f766520746f20746865207a65726f20616464726560008201527f7373000000000000000000000000000000000000000000000000000000000000602082015250565b6000611273602283610cc0565b915061127e82611217565b604082019050919050565b600060208201905081810360008301526112a281611266565b9050919050565b7f45524332303a20696e73756666696369656e7420616c6c6f77616e6365000000600082015250565b60006112df601d83610cc0565b91506112ea826112a9565b602082019050919050565b6000602082019050818103600083015261130e816112d2565b9050919050565b7f45524332303a207472616e736665722066726f6d20746865207a65726f20616460008201527f6472657373000000000000000000000000000000000000000000000000000000602082015250565b6000611371602583610cc0565b915061137c82611315565b604082019050919050565b600060208201905081810360008301526113a081611364565b9050919050565b7f45524332303a207472616e7366657220746f20746865207a65726f206164647260008201527f6573730000000000000000000000000000000000000000000000000000000000602082015250565b6000611403602383610cc0565b915061140e826113a7565b604082019050919050565b60006020820190508181036000830152611432816113f6565b9050919050565b7f45524332303a207472616e7366657220616d6f756e742065786365656473206260008201527f616c616e63650000000000000000000000000000000000000000000000000000602082015250565b6000611495602683610cc0565b91506114a082611439565b604082019050919050565b600060208201905081810360008301526114c481611488565b905091905056fea2646970667358221220eadbdfafd7dccfcf57c807268f76f5ae999b46a121418e71c4f384cc9b66733764736f6c63430008110033",
    "linkReferences": {},
    "deployedLinkReferences": {}
}